:020000040800F2
:1000000058C00020D102000899310008B12B000827
:1000100095310008851E0008695B0008000000009B
:10002000000000000000000000000000390200088D
:1000300089290008000000007D020008754F0008B3
:10004000EB020008EB020008EB020008EB020008DC
:10005000EB020008EB020008EB020008EB020008CC
:10006000EB020008EB020008EB0200087124000814
:10007000EB020008EB020008EB020008EB020008AC
:10008000EB020008EB020008EB020008EB0200089C
:100090002D5A0008EB020008EB020008EB020008F2
:1000A000EB020008EB020008EB02000835520008E2
:1000B000AD5200089153000801540008EB020008FB
:1000C000EB020008EB020008EB020008EB0200085C
:1000D000EB02000809580008EB020008EB020008D8
:1000E000EB020008EB020008EB020008EB0200083C
:1000F000EB020008EB020008E1540008EB020008E4
:10010000EB020008EB02000871540008EB02000843
:10011000EB020008EB020008EB020008EB0200080B
:10012000EB020008EB020008EB020008EB020008FB
:1001300000F002F800F070F80AA090E8000C824489
:100140008344AAF10107DA4501D100F065F8AFF266
:10015000090EBAE80F0013F0010F18BFFB1A43F0A5
:100160000103184794F00000B4F000000A444FF077
:10017000000C10F8013B13F0070408BF10F8014B06
:100180001D1108BF10F8015B641E05D010F8016B4B
:10019000641E01F8016BF9D113F0080F1EBF10F8AF
:1001A000014BAD1C0C1B09D16D1E58BF01F801CBD2
:1001B000FAD505E014F8016B01F8016B6D1EF9D555
:1001C0009142D6D37047000000230024002500266A
:1001D000103A28BF78C1FBD8520728BF30C148BFAA
:1001E0000B60704766290EF01080642900F02481AE
:1001F000782900F05D81732900F07886002070472F
:100200001FB500F0C1FE0400002000210DF0BAFA75
:10021000E0601FBD10B510BD00F0BEFF1146FFF736
:10022000EFFF08F071FC00F0DCFF03B4FFF7F2FF12
:1002300003BC05F0CEFE0000224B19680868B0E848
:10024000F00F80F30988BFF36F8F4FF0000080F349
:1002500011884EF00D0E704700000000064800683F
:10026000006880F3088862B661B6BFF34F8FBFF3B2
:100270006F8F00DF00BF00BF08ED00E0EFF30980E3
:10028000BFF36F8F0F4B1A6820E9F00F106008B5AD
:100290004FF0500080F31188BFF34F8FBFF36F8F83
:1002A0000CF044F94FF0000080F31188BDE80840DD
:1002B00019680868B0E8F00F80F30988BFF36F8F02
:1002C000704700BFDC000020EFF30580704700009E
:1002D0000948804709480047FEE7FEE7FEE7FEE7DA
:1002E000FEE7FEE7FEE7FEE7FEE7FEE70448054916
:1002F000054A064B70470000954F00083101000881
:1003000058BA002058C0002058BC002058BC00201B
:100310007047B2F120030AD5C2F1200320FA02F09F
:1003200001FA03F321FA02F140EA0300704721FACF
:1003300003F04FF00001704710B54C1084EA5304ED
:1003400004D54042C1F1000138BF491E1B4204D50B
:100350005242C3F1000338BF5B1E00F0BFFA14F035
:10036000804F04D04042C1F1000138BF491E14F053
:10037000004F04D05242C3F1000338BF5B1E10BDD2
:100380000FB4044910B503AA029800F0B3FD10BCE5
:100390005DF814FBC000002070B504468569006854
:1003A000C10601D5302600E02026C00707D070BD69
:1003B000D4E9012130469047206A401C20626D1E1E
:1003C000F6D570BD70B5044685690078C00707D1C1
:1003D00070BDD4E9012120209047206A401C206292
:1003E0006D1EF6D570BD70B50C460546012A05D0C8
:1003F0002878800600D5EA69002302E0012305E0A1
:100400005B1C934202D2E05C0028F9D1A869E6188F
:10041000C01AA861286A184428622846FFF7BCFF62
:1004200004E0D5E9012114F8010B9047B442F8D358
:100430002846FFF7C7FF70BD2DE9F04106460024AE
:1004400010687529314616A510D0AFF3008000283A
:1004500002DA404213A507E031688A0701D512A5E8
:1004600002E0490704D511A5012401E0AFF30080A3
:1004700000210A2206F1240709E0B0FBF2FCB0FBE0
:10048000F2F302FB1C00303078541846491C002857
:10049000F3D123462A463046BDE8F04100F095BA34
:1004A000000000002D0000002B00000020000000D4
:1004B00070B504460D4621461068AFF300802188D0
:1004C000090502D50F4A7A4402E00E4A7A440E32F8
:1004D000002104F1240305E000F00F060009965DF9
:1004E0005E54491C0028F7D120780023000704D56A
:1004F000702D02D009B1022311322046BDE87040B0
:1005000000F063BAC8EB00002DE9F0474FF0000A95
:1005100089460446C0F820A02046E16888470028A4
:1005200076D0252806D0D4E901219047206A401CC6
:100530002062F1E7E168204600268847C4F81CA045
:1005400005460027C4F818A02A2D09D0284605F032
:1005500039FD38B304EB8708303DC8F8185019E06E
:1005600059F8041B204604EB87029161E168884733
:10057000012F054618D1E069002820DA26F0200670
:100580001DE0D8F8180000EB800005EB4000303883
:10059000C8F818002046E1688847054605F012FDB6
:1005A0000028EED1012F0AD02E2D08D12046E16877
:1005B00088477F1C0546022F46F02006C4DBA06951
:1005C000002803DA404246F00106A061F00701D09E
:1005D00026F010066C2D0AD0682D08D04C2D39D08D
:1005E0006A2D35D0742D35D07A2D33D016E0E168E0
:1005F0002F4620468847B84205460AD16C2F27D09F
:100600004FF48060E168064320468847054605E0D0
:1006100027E06C2F1AD04FF4807006430DB3A5F17C
:100620004100192802D8203546F400664A4629467A
:10063000204626604E46FFF7D5FD80B101280BD03D
:10064000F61D26F0070000F1080965E74020E4E701
:100650008020D7E70020D5E706F104095CE72846AB
:1006600061E7206ABDE8F0870EB5054614460E46E0
:1006700013A000F05CFC284600F059FC16A000F026
:1006800056FC304600F053FC15A000F050FC002151
:100690008DF80B100A210DF10A008DF80A1008E000
:1006A00094FBF1F201FB124294FBF1F4303200F8BA
:1006B000012D002CF4DC00F03AFC00F02DFC0000D1
:1006C0002A2A2A20617373657274696F6E206661CD
:1006D000696C65643A2000002C2066696C65200016
:1006E0002C206C696E65200040EA010310B59B0761
:1006F0000FD1042A0DD310C808C9121F9C42F8D08C
:1007000020BA19BA884201D9012010BD4FF0FF303C
:1007100010BD1AB1D30703D0521C07E0002010BD52
:1007200010F8013B11F8014B1B1B07D110F8013BDE
:1007300011F8014B1B1B01D1921EF1D1184610BDBF
:1007400040EA0103024630B59B0710D14FF0013457
:1007500000E008C208C91D1B9D4315EAC41FF8D05C
:1007600013F0FF0102F8011B0DD01B0AF8E711F886
:10077000013B002B02F8013B05D011F8013B002B97
:1007800002F8013BF3D130BD032A40F2308010F073
:10079000030C00F0158011F8013BBCF1020F62441C
:1007A00098BF11F801CB00F8013B38BF11F8013BAD
:1007B000A2F1040298BF00F801CB38BF00F8013B5A
:1007C00011F0030300F02580083AC0F0088051F8CA
:1007D000043B083A51F804CBA0E80810F5E7121DD5
:1007E0005CBF51F8043B40F8043BAFF30080D207F4
:1007F00024BF11F8013B11F801CB48BF11F8012BC0
:1008000024BF00F8013B00F801CB48BF00F8012BE2
:10081000704710B5203AC0F00B80B1E81850203A6C
:10082000A0E81850B1E81850A0E81850BFF4F5AF90
:100830005FEA027C24BFB1E81850A0E8185044BF1A
:1008400018C918C0BDE810405FEA827C24BF51F887
:10085000043B40F8043B08BF7047D20728BF31F87B
:10086000023B48BF11F8012B28BF20F8023B48BFCC
:1008700000F8012B704702F0FF0343EA032242EA2B
:10088000024200F060BB4FF0000200B513469446F0
:100890009646203922BFA0E80C50A0E80C50B1F1D8
:1008A0002001BFF4F7AF090728BFA0E80C5048BFEC
:1008B0000CC05DF804EB890028BF40F8042B08BF8A
:1008C000704748BF20F8022B11F0804F18BF00F886
:1008D000012B7047704770477047704753EA020C0E
:1008E00000F069802DE9F04B4FF00006002B1FBF90
:1008F000B3FA83F503FA05F424FA05F65E4012BF55
:100900001643B2FA82F502FA05F4C5F120051EBFBE
:1009100022FA05FC44EA0C04203556EA044C4FEA5E
:10092000144418BF641C4FF000084FF000099042B7
:1009300071EB030C39D3002919BFB1FA81F701FA21
:1009400007F6B0FA80F700FA07F6C7F120071EBFD6
:1009500020FA07FC46EA0C062037B6FBF4FCA7EBAE
:100960000507103F07F01F0BCBF120060CFA0BFB1D
:100970002CFA06F644BFB3460026202FA4BF5E46DD
:100980004FF0000B5BEA060C08BF4FF0010B19EBB0
:100990000B09ABFB027C48EB0608C01B06FB02CC34
:1009A0000BFB03CC71EB0C01C1E70B460246414641
:1009B0004846BDE8F08B13B54FF000004FF0000142
:1009C000AFF30080BDE81C4070472DE9F0470D46AD
:1009D00099469246044600F124080168880604D529
:1009E000E06921F01001216000E00120A84201DD52
:1009F000471B00E00027A1697A1902EB0900081AD9
:100A0000A0612078C00602D42046FFF7C5FC00266E
:100A100008E0D4E901211AF806009047206A401C3A
:100A2000761C20624E45F4DB2078C0060AD52046AD
:100A3000FFF7B2FC06E0D4E9012130209047206A9C
:100A4000401C2062381EA7F10107F4DC07E0D4E95E
:100A5000012118F805009047206A401C2062281EDA
:100A6000A5F10105F3DC2046FFF7ACFC2078000679
:100A700002D50220BDE8F0870120FBE770472DE991
:100A8000FF4F0C461E464FF0FF378BB0D2E90001F6
:100A9000DDF860800A908A46C1F30A5505B93D46E3
:100AA000002108464FF00000BAF1000F00F44000AA
:100AB00005DA00EB80004FF4400101EA50004FEAF4
:100AC0009059B9F1010F00DDB9460A9850EA4A0081
:100AD0000ED044F61050A5F2FF3545432F14B8F15F
:100AE000000F1ED07542291E1EDDC9F100021CE058
:100AF000B8F1010F4FF0000001D0302103E0F243C4
:100B000005E02154401CB042FBDB304600220021AE
:100B100021540B99C1F80880C1E900200FB0BDE84D
:100B2000F08FBD1B6D1CDEE74A4600DA694206A85D
:100B300000F0B4FA06AB93E8070003AB83E80700C4
:100B400050460A9900F0CDFB8DE80700A0F5005053
:100B50001F3800900398002D09DD42F21F014A461C
:100B6000084403A90390684600F02CFE08E0A0F5B5
:100B700000504A461F3803A90390684600F036FE2D
:100B80008DE807000004000C03D04FF0FF3041084F
:100B900000E01046B8F1000F03D000220092154685
:100BA0001EE0751E05D400F0F3F9303262556D1E5B
:100BB000F9D5B3460122084302D000227F1C04E08D
:100BC0002078302801D100227F1E002A099786D084
:100BD0001DE0112D07DA00F0DBF9303262556D1C93
:100BE00050EA0102F5D1084302D00098C8B10EE0E6
:100BF0000021681E05E0235C625C63542254401EA1
:100C0000491C8142F7DBAB46A81B401E099000201F
:100C100004F80B000B98099AC0F80880C0E9002B73
:100C20007CE711264FF0000859E72DE9F04F884680
:100C30000446D21D22F0070191B0D1E90001CDE9AF
:100C40000A0105F033F902460B98C00F01D02D20A0
:100C500007E02068810701D52B2002E0202101EA6E
:100C6000C000032A099001D0072A05DB034641464C
:100C7000204600F0D3F90BE12078800601D5E06929
:100C800000E00620B8F1650F814606D0B8F1660F86
:100C900018D0B8F1670F70D131E00020B9F1110F11
:100CA000009001DB112301E009F101030AAA01A967
:100CB0000CA8FFF7E4FEDDE90C70002609F1010540
:100CC000834647E001204B4600904FF000470AAAB8
:100CD00001A90CA8FFF7D3FEDDE90DB00C995D4624
:100CE000002610B909F101000D18B9EB050003D475
:100CF000C0F1FF3609F10105A5EB09002BE0B9F1C0
:100D0000010F01DA4FF001090020B9F1110F009035
:100D1000484601DD112300E003460AAA01A90CA8F8
:100D2000FFF7ADFEDDE90C704D46002683462078C6
:100D300000070AD4AB4500DA5D4601A8012D04DDA9
:100D4000411911F8011C302907D04F4502DA17F17B
:100D5000040F04DA012082460FE06D1EEEE7002F3B
:100D600002DCED1B3E4403E0781CA84200DD7D1C44
:100D7000B81B00F1010A4FF000472078000703D4A8
:100D8000AA4501DB4FF0FF3A0021B7F1004F0DF10A
:100D900043088DF8431024D002202B23002F01DAC2
:100DA0007F422D230A21021EA0F1010000DC5FB169
:100DB00097FBF1FC97FBF1F201FB1C7C17460CF151
:100DC000300C08F801CDEEE7A8F10100037021888E
:100DD000090501D5452100E06521A0F1010800F8D1
:100DE000011C09980FA9A1EB0807FF1D00B1012004
:100DF000411901EBEA70A1693844081A401EA0614C
:100E00002078C00602D42046FFF7C6FA099828B118
:100E1000D4E901219047206A401C20622078C00656
:100E200022D52046FFF7B8FA1EE0002E04DBB345BA
:100E300002DD01A8805D00E03020D4E90121904767
:100E4000206A401C2062761CAAF101005FEA000AB9
:100E50000AD100F099F8C0680168405CD4E901212A
:100E60009047206A401C2062281EA5F10105DCDCA9
:100E700007E0D4E9012118F8010B9047206A401CD3
:100E80002062381EA7F10107F3DC2046FFF79AFA2B
:100E9000032011B043E6000001694A1C0261087892
:100EA000704700B58FB0CDE90131002105910549AA
:100EB0007944CDE9031011466846FFF725FB0FB0D2
:100EC00000BD0000E5FFFFFF10B5436913B1AFF3AC
:100ED000008001E0FFF787FA012010BD127800F1D1
:100EE00024010A7000224A700122EDE711684FF0D8
:100EF000FF32E9E7074B70B50D467B44FFF7D1FFA2
:100F00000446284600F038F910B14FF0FF3070BDAC
:100F1000204670BD036E000010B5002000F030F9CF
:100F2000FFF778F9BDE81040012005F052B810B580
:100F3000044602E0641C05F04EF820780028F9D140
:100F400010BD4FF000020429C0F0128010F0030C15
:100F50003FF49BACCCF1040CBCF1020F18BF00F8BD
:100F6000012BA8BF20F8022BA1EB0C01FFF78DBCD1
:100F70005FEAC17C24BF00F8012B00F8012B48BFB9
:100F800000F8012B704700000048704718BA002095
:100F900030B5B0F10A024FEA900E71F100034EEA4B
:100FA000817EB0EB0E0061EB91014FEA101E4EEA1C
:100FB000017E10EB0E0041EB11114FEA102E4EEAAC
:100FC000016E10EB0E0041EB11214FEA104E4EEA7C
:100FD000014E10EB0E0041EB1141401841F10001B0
:100FE0004FEAD00040EA41704FEAD10110EB800592
:100FF0004FEA810444EA907444EB01046D1944EB18
:101000000404521BA3414FF0000348BF0A3200D52D
:1010100030BD401C41F1000130BD00002DE9F04120
:101020001F46044603260168072A01F4006004DB1A
:1010300008B116A505E016A503E008B115A500E066
:1010400015A521F010002060A069C01EA0610FB19D
:10105000401EA0612046FFF79FF94FB1D4E901215E
:1010600038469047206A401C2062C01C206206E07F
:10107000206AFAE7D4E9012115F8010B9047761EA2
:10108000F8D22046FFF79EF9BDE8F0814E414E00B0
:101090006E616E00494E4600696E66002DE9F047AC
:1010A000814616468AB0334878440DC88DE80D0055
:1010B00030487844801C03AC0DC884E80D0041F62C
:1010C0009B300844372190FBF1F290FBF1F5A5F13C
:1010D000800501FB12041B3C02D56442012000E0A4
:1010E0000020DFF890A080460027FA44AAF1BE0A4B
:1010F0000DE0E00709D03246684607EB47010AEBEE
:10110000810100F073FB8DE8070064107F1C002C48
:10111000EFD1184F7F44AC3F18E0E80714D007EB3D
:1011200004100DF1180A90E80E008AE80E00C0685D
:10113000F04201D198190890324606A903A800F0A0
:1011400055FB03AB83E807006D10641C002DE4D150
:1011500032466946B8F1000F03A802D000F032FB16
:1011600001E000F043FBC9E90001C9F808200AB01A
:10117000BDE8F0878CE00000007B00F08000704745
:1011800010B500F03DF8BDE8104000F033B80000A5
:1011900000487047F8B900207546FFF7F9FFAE46E2
:1011A00005006946534620F00700854618B020B573
:1011B000FFF79CF8BDE820404FF000064FF0000715
:1011C0004FF000084FF0000B21F00701AC46ACE8EF
:1011D000C009ACE8C009ACE8C009ACE8C0098D465C
:1011E000704710B50446AFF300802046BDE81040BC
:1011F000FFF71BB8002801D004F0EBBE70470000D9
:1012000010B5002102A000F053F8012010BD00002D
:10121000534947414252543A2041626E6F726D61A8
:101220006C207465726D696E6174696F6E00000088
:101230004FF0013C50F8042B51F8043B9A4221D165
:10124000A2EB0C03934313EACC1317D150F8042BF1
:1012500051F8043B9A4215D1A2EB0C03934313EAD5
:10126000CC130BD150F8042B51F8043B9A4209D10E
:10127000A2EB0C03934313EACC13DBD04FF0000036
:10128000704700BFD01A01BAB1FA81F101F018011C
:1012900022FA01F0CB40C1F12001DBB2C0B2C01A8A
:1012A0002CFA01F3D11A914311EAC311E6D1704728
:1012B00070B505460C460A2000E06D1C04F08BFE5C
:1012C00035B128780028F8D102E0641C04F083FED0
:1012D00014B120780028F8D1BDE870400A2004F04D
:1012E0007ABE5FEA400C08BF91F0000F4FEA8C23F2
:1012F0004FEAC12243EA51514FEA1C5018BF00F592
:10130000F0404FEA300018BF41F000415FEA6C5CEA
:1013100000F02980BCF1FF3F08BF40F080407047DB
:10132000130C06BF12044FF0100C4FF0000C130EFC
:1013300004BF12020CF1080C130F04BF12010CF1D0
:10134000040C930F04BF92000CF1020CD30F04BFE6
:1013500052000CF1010C11464FF00002A0F11F00E9
:10136000A0EB0C00704711F0004F08BF704731F040
:1013700000413FF4D5AF0B0C06BF09044FF0100C31
:101380004FF0000C0B0E04BF09020CF1080C0B0F00
:1013900004BF09010CF1040C8B0F04BF89000CF190
:1013A000020CCB0F04BF49000CF1010CCCF120035F
:1013B000A0EB0C0022FA03F302FA0CF241EA03015B
:1013C00000F10100704720F07F4C80EA030023F019
:1013D0007F47ACEB070303F57C5300F0004003F1BB
:1013E000FF032DE980494FEA154B09B44FEA144336
:1013F00025EA0B4E24EA03480FF2042606EB1327D6
:1014000049083E785FEA320203FB0667C7F500072A
:1014100007FB06F64FEA54374FEAD64606F10206B6
:1014200007FB066CCCF1005C4FEA1C472CEA074C2A
:1014300007FB06F40CFB06F504EB15464FEA96167F
:1014400034BF00204FF000404FEAD13706FB07FCC5
:101450004FEA1C4C0CFB0BF7D21B03FB0CF761EBA8
:1014600007010CFB0EF7B0EB074072EB17420CFBC9
:1014700008F734BFA2EB0742B2EB074261EB17411A
:101480004FEA0C444FEA910706FB07FC4FEA1C4C5D
:101490000CFB0BF7B0EBC74072EB573203FB0CF7BA
:1014A00034BFA2EBC742B2EBC74261EB57310CFB32
:1014B0000EF7B0EBC70072EB57720CFB08F734BFA6
:1014C000A2EBC702B2EBC70261EB5771039F4FEA71
:1014D000816141EA921104EBCC044FEAD1374FEA23
:1014E000826206FB07FC42EA90124FEA80604FEAF4
:1014F0001C4C0CFB0BF7D21B03FB0CF761EB070139
:101500000CFB0EF7B0EB074072EB17420CFB08F731
:1015100034BFA2EB0742B2EB074261EB17414FEA3F
:101520008C554FEA910704EB9C2406FB07FC4FEA1D
:101530001C4C0CFB0BF7B0EBC74072EB573203FBB4
:101540000CF734BFA2EBC742B2EBC74261EB573195
:101550000CFB0EF7B0EBC70072EB57720CFB08F7F1
:1015600034BFA2EBC702B2EBC70261EB577115EBB8
:101570004C254FEA816141EA92114FEA82624FEABB
:10158000D13742EA901206FB07FC44F100044FEA0F
:1015900080604FEA1C4C0CFB0BF7D21B03FB0CF7D3
:1015A00061EB07010CFB0EF7B0EB074072EB174243
:1015B0000CFB08F734BFA2EB0742B2EB074261EB2A
:1015C000174115EB1C154FEA813141EA92414FEA70
:1015D000823242EA90424FEA80304FEA0C7644F180
:1015E000000448EA03434EEA0B484FF0000EB2EB0A
:1015F000080C71EB030724BF624639464EEB0E0E12
:101600004FF0000B0018524149414BEB0B0BB2EB72
:10161000080C71EB03077BF1000B24BF62463946CF
:101620004EEB0E0E4FF0000B0018524149414BEBB0
:101630000B0BB2EB080C71EB03077BF1000B24BF23
:10164000624639464EEB0E0E51EA020718BF46F0CD
:10165000010616EB0E7655F1000254F1000103D598
:10166000BDE88901BDE80088BDE88901BDE8004802
:10167000B619524141EB0101A3F10103704780808B
:101680007F7E7D7C7B7A79787776767574737271DC
:1016900071706F6E6E6D6C6C6B6A6A696868676694
:1016A00066656464636362616160605F5F5E5E5D26
:1016B0005D5C5C5B5B5A5A5959585857575656559A
:1016C00055555454535352525251515050504F4FFC
:1016D0004F4E4E4D4D4D4C4C4C4B4B4B4A4A4A494C
:1016E000494948484847474747464646454545448F
:1016F0004444444343434342424242414141002B1C
:1017000026D4770021D01CB54FEA370703B44FF039
:1017100010004FF010014FF000000FBCBDE810406A
:101720000BF1010BBBF1010F08BF5FEA170722BFE6
:1017300012F1010211F101014FF0004143F10003E8
:1017400000F0004043EA00007047F9D35708DAE799
:1017500046EA064613F1400F4FEA16461FDD13F125
:10176000200FDFBF16430A46002120335B42C8D05A
:10177000C3F1200746EA064602FA07F74FEA164683
:1017800046EA0706C3F1200722FA03F201FA07F737
:1017900021FA03F14FF0000342EA0702B1E746EAFB
:1017A000020646EA06464FEA164646EA0106BCBF6E
:1017B00046EA0646360C4FF000034FF000024FF0A9
:1017C00000019EE72DE9C048934630B491E8380007
:1017D00007C831EA400C48BF34EA430C03D5FFF791
:1017E000F2FDFFF78CFFF0BCBDE800882DE9C04892
:1017F000934630B491E8380007C810F0804F08BF16
:1018000013F0804F03D100F005F8FFF778FFF0BC2C
:10181000BDE8008820F07F4780EA030023F07F4C7A
:1018200007EB0C03A3F57C5300F00040A3F1FE038B
:1018300092F0000F00F0B38095F0000F00F0778079
:101840002DE901494FEA11404FEA144621EA0048C8
:1018500000FB06FC24EA064708FB06F607FB08F82F
:1018600000FB07F718EB06484CEB164C4FEA124BFF
:1018700018EB07484FEA15464CEB174022EA0B4E8F
:101880000BFB06FC25EA06470EFB06F607FB0EFEE1
:101890000BFB07F71EEB064E4CEB164C4FF0000609
:1018A0001EEB074E4CEB174B18EB0B0840F10000FA
:1018B00018EB0E0B58EB000840F100008F1A4FF0A8
:1018C00000013CBFC943661B14BFB5EB040C0021EB
:1018D0003CBFC943F61B4FEA17444EEA8E0E27EA77
:1018E00004454FEA1C4704FB07622CEA074C05FB42
:1018F00007F70CFB05F604FB0CFC16EB074642EB66
:10190000174216EB0C4642EB1C421BEB060658EB4B
:101910000202414146EA9E0601D5BDE80189B61999
:10192000524141EB0101A3F10103BDE801894FEAF6
:1019300014454FEA114724EA054621EA074C05FB06
:1019400007F406FB07F70CFB06F105FB0CFC11EB9B
:10195000074144EB17444FEA124711EB0C4144EBAB
:101960001C4422EA074C05FB07F206FB07F70CFBB9
:1019700006F605FB0CFC16EB074642EB174216EB8E
:101980000C4642EB1C456A1854F1000148BF7047F1
:10199000B619524141EB0101A3F10103704795F0E3
:1019A000000F37D04FEA11424FEA144721EA0246AE
:1019B00024EA074C02FB07F106FB07F70CFB06F4D1
:1019C00002FB0CFC14EB074441EB17414FEA1547AF
:1019D00014EB0C4441EB1C4125EA074C02FB07F5D4
:1019E00006FB07F70CFB06F602FB0CFC16EB0746A2
:1019F00045EB174516EB0C4645EB1C42121951F10D
:101A0000000148BF7047B619524141EB0101A3F1F3
:101A1000010370474FEA14454FEA114724EA05468F
:101A200021EA074C05FB07F106FB07F70CFB06F262
:101A30004FF0000605FB0CFC12EB074241EB17418F
:101A400012EB0C4251EB1C4148BF7047921841EB1E
:101A50000101A3F10103704721B1826842F0010244
:101A6000826003E0826822F001028260704721B147
:101A7000826842F48072826003E0826822F480729D
:101A80008260704710B504461248844208D1012193
:101A9000401501F085FC0021601501F081FC17E084
:101AA0000D48844208D10121001501F079FC002184
:101AB000201501F075FC0BE00848844208D1012193
:101AC000C80301F06DFC00214FF4004001F068FCF8
:101AD00010BD00000024014000280140003C0140EE
:101AE0000A460021816821F4E0411143816070477A
:101AF000014600208A6802F004020AB1012000E0D9
:101B00000020704708B5024600200090009201F1C5
:101B10002800009B184400900098006880B208BD1F
:101B2000014600208A6802F008020AB1012000E0A4
:101B30000020704730B502460020002350680F4C4B
:101B400020400D790C6844EA0524204350609068D9
:101B50000B4C2040D1E902542C434D7944EA450412
:101B600020439060D06A20F470000C7C641EE4B2C4
:101B7000234340EA0350D06230BD0000FFFEF0FF77
:101B8000FDF7F1FFF0B504461546002000220026BF
:101B9000092911DDE068A1F10A0707EB470C0727C7
:101BA00007FA0CF29043A1F10A0707EB470703FA83
:101BB00007F21043E0600CE0206901EB410C0727BD
:101BC00007FA0CF2904301EB410703FA07F21043C6
:101BD0002061A06BC0F30156EF1C06F1010CA7EBCE
:101BE0000C0707EB870C1F2707FA0CF29043EF1C3A
:101BF00006F1010CA7EB0C0707EB870701FA07F2C8
:101C00001043A063F0BD10B50A4600210023816B8C
:101C100021F44011531E41EA0351816310BDF0B518
:101C200004460D4600200021092D11DDE068A5F1D4
:101C30000A0606EB4607072606FA07F18843A5F1D0
:101C40000A0606EB460603FA06F10843E0600CE0DC
:101C5000206905EB4507072606FA07F1884305EBDF
:101C6000450603FA06F108432061072A0FDA606B84
:101C7000561E06EB86071F2606FA07F18843561EF6
:101C800006EB860605FA06F10843606322E00D2A9A
:101C90000FDA206BD61F06EB86071F2606FA07F120
:101CA0008843D61F06EB860605FA06F10843206333
:101CB00010E0E06AA2F10D0606EB86071F2606FA81
:101CC00007F18843A2F10D0606EB860605FA06F138
:101CD0000843E062F0BD816841F00801816070470F
:101CE00021B1826842F4A002826003E0826822F49B
:101CF000A0028260704721B1826842F402128260C1
:101D000003E0826822F4021282607047816841F029
:101D1000040181607047000010B504462CB940F200
:101D2000F91220A121A0FEF72BFB24480088401CBB
:101D3000224908800846018821A0FEF721FB2D4892
:101D40000068C0432C49C1F8800101202B4908607C
:101D50002A490831086027491C3108602749091DB4
:101D600008602449203108602349C1F8A4010121F9
:101D70002348FFF7B5FF052005F088F900201F492B
:101D800008601E49083108601A491C3108601B4967
:101D9000091D08601749203108601749C1F8A401DE
:101DA00010BD00006D61696E2E6300004572726F98
:101DB000723A25732C25640D0A000000580000209B
:101DC0005761726E696E673A204175746F72656C07
:101DD0006F61642074696D65722068617320776F2C
:101DE000726B656420666F722025642074696D656E
:101DF000730D0A008001224200002242B481214278
:101E00000024014008B50121182001F0B9FA40F280
:101E10008130ADF8000010208DF8030003208DF80C
:101E200002006946114800F0BDFD4FF46040ADF876
:101E3000000010208DF8030003208DF80200694691
:101E40000B4800F0AFFD00200A4908600A49C1F8BC
:101E5000BC010A4908600749091D08600749091DB6
:101E600008600749C1F8A40108BD00000010014046
:101E7000000C0140B4812142008021429C01224299
:101E80000000224200BFFEE730B58BB000240025E1
:101E90000121480601F054FA0121042001F070FAF2
:101EA0004FF40060ADF8080048208DF80B000320C7
:101EB0008DF80A0002A9594800F074FD4FF48050D3
:101EC000ADF8080018208DF80B0002A9534800F067
:101ED00069FD534800F0B2F808A800F0B9FA0121F2
:101EE000480601F02DFA00208DF826008DF8270015
:101EF0008DF8280001208DF8290000208DF82A0097
:101F000001208DF82B0000208DF822008DF8230091
:101F100005208DF8240004208DF82500ADF8200060
:101F200008A93F4800F033F93E480078802101EBD2
:101F300000254FF4FF4400208DF81A008DF81B0097
:101F400001208DF81C00680BADF810004FF6FF70F3
:101F500000EAC500001DADF81200600BADF81400DA
:101F60004FF6FF7000EAC400001DADF81600002017
:101F7000ADF8180001208DF81D0004A800F07AF8D3
:101F8000294D6FF07F4409208DF81A0000208DF84C
:101F90001B0001208DF81C00680BADF8100020120A
:101FA00000EAC500001DADF81200600BADF814008A
:101FB000201200EAC40021120843ADF816000020E8
:101FC000ADF8180001208DF81D0004A800F052F8AB
:101FD00001220221124800F0D1F814208DF80C00E3
:101FE00005208DF80D0000208DF80E0001208DF8E1
:101FF0000F0003A801F0D2F800200C490C4B4FF45D
:102000008062CDE900100B490B4804F0F1FD054852
:102010000178094804F042FE0BB030BD00080140D1
:1020200000640040710000201002500045B5000817
:10203000699F0008280400200404002010B504460D
:102040000B48844209D10121480601F089F9002199
:102050004FF0007001F084F908E00121880601F0DA
:102060007FF900214FF0806001F07AF910BD000087
:102070000064004010B50021837A012202FA03F1C6
:102080003D4A126842F001023B4B1A603A4A1C3248
:1020900012688A43384B1C331A60027BCAB9364A2D
:1020A0000C3212688A43344B0C331A604288C3885E
:1020B00042EA0343304A4032847A42F8343002889C
:1020C000838842EA03432C4A4032847A02EBC402FA
:1020D0005360027B012A19D1274A0C3212680A4345
:1020E000254B0C331A604288038842EA0343224A94
:1020F0004032847A42F83430C288838842EA03430B
:102100001D4A4032847A02EBC4025360C27A3AB963
:10211000194A121D12688A43174B1B1D1A6006E0EC
:10212000154A121D12680A43134B1B1D1A600289BF
:1021300032B9114A143212688A430F4B14331A60B1
:102140000289012A06D10C4A143212680A430A4B4A
:1021500014331A60427B012A06D1074A1C321268E6
:102160000A43054B1C331A60034A126822F001022D
:10217000014B1A6010BD0000006600401AB14369AF
:102180000B43436102E043698B434361704730B5C1
:10219000024600200023146824F00204146014682E
:1021A00044F00104146000E05B1C546804F0010476
:1021B0001CB94FF6FF74A342F6D1546804F0010431
:1021C0000CB900206CE08C79012C04D1146844F027
:1021D0008004146003E0146824F080041460CC7957
:1021E000012C04D1146844F04004146003E0146826
:1021F00024F0400414600C7A012C04D1146844F0DB
:102200002004146003E0146824F0200414604C7A65
:10221000012C04D1146844F01004146003E0146825
:1022200024F0100414608C7A012C04D1146844F05A
:102230000804146003E0146824F008041460CC7AE5
:10224000012C04D1146844F00404146003E0146801
:1022500024F0040414608C78A407CD7844EA056463
:102260000D7944EA05444D7944EA05540D886D1E04
:102270002C43D461146824F001041460002300E0AE
:102280005B1C546804F001041CB14FF6FF74A342B8
:10229000F6D1546804F001040CB1002000E00120E4
:1022A00030BD000010B52348B0F8E60000EB001187
:1022B00001EB8010642190FBF1F01E49A1F8E600CB
:1022C0000846B0F8E600B0F5487F06DA00201A4963
:1022D00008701AA0FEF754F82BE01648B0F8E60094
:1022E00040F24C41884203DA08201349087020E08C
:1022F0001048B0F8E600B0F5C86F03DA09200E49BF
:10230000087016E00B48B0F8E600B0F5FA6F03DA93
:102310000A20094908700CE00648B0F8E600B0F55C
:10232000486F03DA0B200449087002E000200249DC
:10233000087010BD88010020710000204572726F86
:10234000723A206661696C20746F20736574207422
:1023500068652043414E2049442E0D0A00000000CC
:1023600010B500F5D87303EB01131B6803F00403E9
:102370001372137A53B900F5D87303EB01131B687A
:1023800040F2FF7404EA5353136009E000F5D87378
:1023900003EB01131B686FF0604404EAD30353603E
:1023A00000F5D87303EB01131B6803F002035372AB
:1023B00000F5D87303EB01135B6803F00F0393720E
:1023C00000F5D87303EB01135B681B0AD37400F5A7
:1023D000D87303EB01139B68D37200F5D87303EB3A
:1023E00001139B681C0A147300F5D87303EB0113E7
:1023F0009B681C0C547300F5D87303EB01139B68A6
:102400001B0E937300F5D87303EB0113DB68D373D2
:1024100000F5D87303EB0113DB681C0A147400F594
:10242000D87303EB0113DB681C0C547400F5D873EC
:1024300003EB0113DB681B0E937421B9C36843F0EF
:102440002003C36003E0036943F02003036110BD70
:1024500000218171C171017241728172C1728170FA
:10246000C170032101710221417101210180704776
:1024700038B500200090022000F0FCF808B30021DD
:10248000124800F045F800F06FFB6A464021104802
:1024900000680AF033F904464CB1009838B14FF0A7
:1024A00080500C490860BFF34F8FBFF36F8F03213B
:1024B000064800F01CF9022000F01CF8022000F091
:1024C0000BF80121014800F023F838BD0800024054
:1024D0003400002004ED00E000F0805111B1034908
:1024E000086001E0024948607047000004040240AF
:1024F0000000024000F0805111B10349086001E082
:102500000249486070470000040402400000024095
:1025100021B1026842F00102026004E002684FF655
:10252000FE731A400260704701684FF6FE72114058
:1025300001600021016041608160C1604B498842B7
:1025400008D14A490839496841F00F01474A083A19
:1025500051608AE045491431884208D1434908391D
:10256000496841F0F001414A083A51607DE03F4935
:102570002831884208D13D490839496841F47061E1
:102580003A4A083A516070E038493C31884208D1F3
:1025900036490839496841F47041344A083A516073
:1025A00063E032495031884208D1304908394968DE
:1025B00041F470212D4A083A516056E02B496431AC
:1025C000884208D129490839496841F47001274AED
:1025D000083A516049E025497831884208D12349B9
:1025E0000839496841F07061204A083A51603CE07E
:1025F0001F49884206D1011F096841F00F01021FDF
:10260000116032E01A491431884208D11849091F73
:10261000096841F0F001164A121F116025E01449C3
:102620002831884208D11249091F096841F47061B4
:102630000F4A121F116018E00D493C31884208D141
:102640000B49091F096841F47041094A121F1160C2
:102650000BE007495031884207D10549091F096835
:1026600041F47021024A121F1160704708000240B5
:102670000804024001460020002201F0805313B1FB
:10268000054B1A6801E0054B1A6802EA01030BB119
:10269000012000E0002070470004024000000240DA
:1026A0001AB103680B43036002E003688B430360C5
:1026B000704710B50022026847F6F0739A430C6A1F
:1026C0008B6823430C6923434C6923438C69234360
:1026D000CC6923434C6A23438C6A23431A43026028
:1026E000CB6843600B6883604B68C36010BD41607A
:1026F0007047000070B57825284607F041FBC4B24A
:1027000014B10AA0FDF73CFE782006F0FBFAC4B233
:1027100014B113A0FDF734FE0A2007F0D7FAC4B2B3
:1027200014B11CA0FDF72CFE70BD00006572726F25
:10273000723A6661696C20746F20736574757020DD
:102740007468652073656E736F7220666F722044C3
:102750004D502066756E6374696F6E0D0A0000003F
:102760006572726F723A6661696C20746F20707561
:102770007368206779726F20616E6420616363659E
:102780006C206461746120696E746F204649464F05
:102790000D0A00006572726F723A6661696C20748E
:1027A0006F207365742073616D706C652072617445
:1027B0006520666F7220494D550D0A0008B501214C
:1027C000142000F0DDFD3020ADF8000010208DF861
:1027D000030003208DF8020069460B4800F0E2F880
:1027E0001021094800F0BBF92021074800F0B7F993
:1027F0008020ADF800006946044800F0D3F880213D
:10280000024800F0ACF908BD00100140000801408A
:1028100010B500244FF4806005F0E0FF04E0601C78
:10282000C4B2012009F0D0F84FF480610F4800F0E5
:102830008DF908B1C82CF2DBC82C01DB012010BDDA
:10284000002404E0601CC4B20A2009F0BDF84FF473
:102850008061064800F07AF908B9182CF2DB182CD0
:1028600001DB0120EBE70020E9E700000010014058
:102870002DE9F05F00F07CF800F060F8FFF7C8FF8A
:102880008346CC2000F02CFDBE2000F029FD00F096
:10289000EFFC00F0FF0A00F0EBFCC4B2072C08DDEF
:1028A000E043C4B26FEA0A0000F0FF0A4FF0000BE9
:1028B00001E04FF0010BA1464FEA09200FFA80F921
:1028C00009EB0A000FFA80F948460AF0ACFF074608
:1028D0000022094B0AF0FAFF05460AF075FF0FFACD
:1028E00080F9BBF1000F02D04846BDE8F09FC9F166
:1028F000000000B2F9E700000000E43F08B5012144
:10290000102000F03DFD4FF48060ADF80000102075
:102910008DF8030003208DF802006946064800F098
:1029200041F84FF40061044800F01BF900F006F88C
:10293000FFF76EFF08BD00000010014010B54FF416
:10294000806007F07BFB4FF48061084800F007F9D6
:1029500040F2EE2009F038F84FF48061034800F0AF
:1029600000F90F2009F030F810BD00000010014000
:1029700010B5FFF7E3FFFFF74BFFCC2000F0B0FCF2
:10298000442000F0ADFC10BD70470000002003495A
:1029900008600349C1F89401704700009C0121427E
:1029A000000022422DE9F0410246002500260020C9
:1029B00000230024002791F803C00CF00F0591F8C4
:1029C00003C00CF0100CBCF1000F03D091F802C052
:1029D0004CEA050591F800C0BCF1000F31D0146835
:1029E00000202BE04FF0010C0CFA00F3B1F800C00E
:1029F0000CEA03069E4220D183004FF00F0C0CFA24
:102A000003F7BC4305FA03FC4CEA040491F803C045
:102A1000BCF1280F06D14FF0010C0CFA00FCC2F8F3
:102A200014C00AE091F803C0BCF1480F05D14FF083
:102A3000010C0CFA00FCC2F810C0401C0828D1D3CD
:102A40001460B1F800C0BCF1FF0F34DD5468002001
:102A50002EE000F1080C4FF0010808FA0CF3B1F871
:102A600000C00CEA03069E4221D183004FF00F0CF8
:102A70000CFA03F7BC4305FA03FC4CEA040491F892
:102A800003C0BCF1280F05D100F1080C08FA0CF8BE
:102A9000C2F8148091F803C0BCF1480F07D100F1CF
:102AA000080C4FF0010808FA0CF8C2F81080401C1E
:102AB0000828CED35460BDE8F0810000F0B50A4686
:102AC000002300240021002500F00046B6F1004F4D
:102AD00002D11D4EF16901E01B4E7168C0F3034540
:102AE00083B200F44016B6F5401F08D121F07061A2
:102AF000154E766826F07066134F7E6012E000F483
:102B00008016B6F5801F06D1032606FA05F4A14308
:102B100041F0706106E0460D360103FA06F6B14356
:102B200041F0706122B1460D360103FA06F63143D9
:102B300000F00046B6F1004F02D1034EF16101E012
:102B4000014E7160F0BD000000000140024600200F
:102B500093680B400BB1012000E0002070474161F9
:102B600070470161704700000D48B0F8E00000EBCD
:102B7000001101EB8010642190FBF1F081B2084854
:102B8000A0F87E10B0F8E20000EB001101EB80101D
:102B9000642190FBF1F081B20148A0F8B6107047B3
:102BA0008801002001480088704700007E00002056
:102BB00000BFFEE721B1028842F48062028004E097
:102BC00002884FF6FF331A4002807047002221F03E
:102BD0007F42D3438382704721B1028842F00102D1
:102BE000028004E002884FF6FE731A4002807047AC
:102BF00010B504460B48844209D10121480500F074
:102C0000AFFB00214FF4001000F0AAFB08E0012107
:102C1000880500F0A5FB00214FF4800000F0A0FB28
:102C200010BD00000054004021B1028842F48072BF
:102C3000028004E002884FF6FF631A40028070476A
:102C400021B1028842F40072028004E002884FF64B
:102C5000FF531A40028070470CB502460020002343
:102C60000193009300920B0F019321F07F41019B90
:102C70001BB1009B1433009303E0090C009B183335
:102C80000093009B1B680B400BB1012000E000206B
:102C90000CBD00002DE9F04385B004460D4600262A
:102CA000B1460427DFF8CC80A6884FF6C0700640F6
:102CB000684600F085FBDDF808802F48B8FBF0F08F
:102CC0001FFA80F946EA0906A68020884FF6FE71B1
:102CD0000840208000262949286888420CD82868A6
:102CE0004000B8FBF0F087B2042F00DA04273E431F
:102CF00009F10100208427E0E8884BF6FF71884243
:102D000006D1286800EB4000B8FBF0F087B209E07C
:102D1000286800EBC00101EB0010B8FBF0F087B2AF
:102D200047F48047C7F30B0008B947F0010747F4A1
:102D3000004006434FF4967009FB00F04FF47A719F
:102D400090FBF1F0401C2084A683208840F0010015
:102D5000208026884FF6F5300640A8886989084308
:102D600006432680A88929890843208105B0BDE84B
:102D7000F083000000127A0040420F00A08601009C
:102D800008B5024600200090009200980844009088
:102D90000098008808BD0146088AC0B2704712B189
:102DA00041F0010102E04FF6FE73194001827047C5
:102DB0000182704721B1028842F40042028003E0A0
:102DC0000288C2F30E020280704700001FB504465D
:102DD00001211648FFF734FF01211448FFF7EAFFED
:102DE00000211248FFF7E6FF1048FFF701FF00201F
:102DF000ADF804004BF6FF70ADF806006820ADF8A2
:102E000008004FF48060ADF80A000001ADF80C0036
:102E10000748009001210548FFF7DEFE6946034898
:102E2000FFF738FF012004B010BD0000005800403B
:102E3000400D030000B585B00121880500F080FA3F
:102E40000121082000F09CFA4FF44060ADF810001A
:102E50001C208DF8130003208DF8120004A91148DE
:102E6000FFF7A0FD1048FFF7C3FE0020ADF80400F7
:102E70004BF6FF70ADF806006820ADF808004FF47F
:102E80008060ADF80A000001ADF80C000748009022
:102E900069460548FFF7FEFE01210348FFF79CFE47
:102EA00005B000BD000C014000580040400D03007B
:102EB0000548006820F4702003490860084600684F
:102EC00040F4403008607047001001400548006839
:102ED00020F47020034908600846006840F4002090
:102EE000086070470010014000B587B001214FF421
:102EF000017000F045FA002000F006FA1A20ADF843
:102F0000040000208DF8070001A92C48FFF74AFDB6
:102F10002B48FEF7B7FD0020029001208DF80C0031
:102F200000208DF80D004FF46020049000200590E3
:102F300003208DF8180002A92148FEF7FBFD0123AC
:102F40001A4619461E48FEF76AFE01230222042192
:102F50001B48FEF764FE0123032211461848FEF7C2
:102F60005EFE01211648FEF74EFE072301220321D3
:102F70001348FEF707FE4FF4E0411148FEF7B0FD9D
:102F800001210F48FEF768FD00F0C0F801210C4850
:102F9000FEF76DFD0A48FEF79EFE00BF0848FEF7EB
:102FA000BFFD0028FAD10648FEF7B0FE00BF044876
:102FB000FEF79EFD0028FAD107B000BD00080140D1
:102FC0000024014010B5FFF7F9FBFFF771FF0A205D
:102FD00004F038F800F0BAFA8E2002F0C7FD0020A5
:102FE00002F0C4FDFFF7D2FC0A2004F02BF800F039
:102FF000ADFA802002F0BAFD002002F0B7FDFFF725
:10300000C5FC00F0A3FA822002F0B0FD262002F0F9
:10301000ADFDFFF7BBFC00F099FA842002F0A6FD9D
:10302000212002F0A3FDFFF7B1FC00F08FFA86200B
:1030300002F09CFD132002F099FDFFF7A7FC00F0C1
:1030400085FA882002F092FD102002F08FFDFFF734
:103050009DFC00F07BFA8A2002F088FD072002F038
:1030600085FDFFF793FC00F071FA8C2002F07EFDE5
:10307000182002F07BFDFFF789FC10BD08B5012187
:10308000082000F07DF901210948FFF717FD08200D
:10309000ADF8000010208DF8030003208DF8020029
:1030A00069460448FFF77EFC01200349086008BD1B
:1030B00000023000000C01408C8121420DE00748E5
:1030C0000068C0430649C1F88C01214605A0FDF700
:1030D00057F94FF4FA6008F02BFFF0E78C8121429A
:1030E000008021425761726E696E673A4C454430E8
:1030F00020697320746F67676C65642C2072657338
:10310000756C74203D2025780D0A000000B58DB047
:103110000121084600F004F91B48FFF705FA1B4897
:1031200002901B480390002004900320059000208B
:1031300006908020079040000890800009900020B1
:103140000A904FF480500B9000200C9002A90E487A
:10315000FFF7AFFA012202210B48FFF7A1FA0B207B
:103160008DF8040006208DF8050000208DF806007B
:1031700001208DF8070001A800F010F80121024895
:10318000FFF7C6F90DB000BD080002404C24014015
:103190006802002000BFFEE77047000070B5002104
:1031A00000230F22C47804B3154C246804F4E064AF
:1031B000C4F5E064210AC1F10403CA40447804FA6A
:1031C00003F184781440214309010E4C0678A1557F
:1031D000047804F01F050124AC4005786D11AD00A2
:1031E00005F1E025C5F8004109E0047804F01F0569
:1031F0000124AC40044D0678761145F8264070BD98
:103200000CED00E000E400E080E100E00249014351
:10321000024A1160704700000000FA050CED00E062
:1032200010B54FF4806006F009FF4FF480610F483D
:10323000FFF795FC022008F0C7FB4FF480610B48B4
:10324000FFF78FFC4FF4806005F0C8FA0C2008F0FF
:10325000BBFB4FF480610548FFF778FC00F00104E8
:10326000322008F0B1FB204610BD000000100140E4
:1032700070B50026002506E0FFF7D2FF0446E00106
:1032800040EA66066D1C082DF6DB304670BD000076
:1032900010B5044684B14FF480611048FFF75FFC1D
:1032A000062008F091FB4FF480610C48FFF759FCB1
:1032B000402008F089FB0FE04FF480610748FFF7DA
:1032C0004EFC402008F080FB4FF480610348FFF77C
:1032D00048FC052008F078FB10BD000000100140FC
:1032E00070B504464FF4806006F0A8FE062008F092
:1032F0006BFB002505E004F00100FFF7C9FF641037
:103300006D1C082DF7DB70BD01460020034A506894
:1033100020F4404008435060704700000010024015
:1033200029B1064A52690243044B5A6104E0034A38
:1033300052698243014B5A617047000000100240FD
:1033400029B1064AD2690243044BDA6104E0034A18
:10335000D2698243014BDA617047000000100240DD
:1033600029B1064A12690243044B1A6104E0034A78
:1033700012698243014B1A6170470000001002403D
:1033800029B1064A92690243044B9A6104E0034A58
:1033900092698243014B9A6170470000001002401D
:1033A00029B1064AD2680243044BDA6004E0034ABA
:1033B000D2688243014BDA6070470000001002407F
:1033C00030B500210022002400232D4D6D6805F04A
:1033D0000C0121B1042905D0082923D105E0294D8C
:1033E000056022E0274D05601FE0254D6D6805F45E
:1033F0007012234D6D6805F48034022505EB92426E
:103400001CB9214D554305600BE01D4D6D6805F459
:1034100000351DB11C4D5543056002E0194D554363
:10342000056002E0174D056000BF00BF144D6D68D8
:1034300005F0F0010909154D6B5C0568DD4045603C
:103440000F4D6D6805F4E061090A104D6B5C45682D
:10345000DD4085600A4D6D6805F46051C90A0B4D69
:103460006B5C4568DD40C560054D6D6805F4404105
:10347000890B074D6B5CC568B5FBF3F5056130BD85
:103480000010024000127A0000093D00C600002032
:10349000D60000202DE9F0410024082714E0002088
:1034A000154908600A2003F0CDFD64101348D0F8D8
:1034B000100108B144F0800401200F4908600A207F
:1034C00003F0C0FD781EC7B2002FE8DC2546284671
:1034D000E91705EB1171C1F30716E91705EB117137
:1034E0000911A5EB0111CDB206EB860005EB4000FA
:1034F000C5B22846BDE8F0819C012142000022426D
:1035000010B50446FFF7D4FC00F020F8BF2002F00D
:103510002DFBFFF7DBFC0A2003F094FDFFF7BAFF59
:103520002070FFF7B7FF6070FFF7B4FFA070FFF7E0
:10353000B1FFE070FFF7AEFF2071FFF7ABFF6071E6
:10354000FFF7A8FFA071FFF721FA10BD10B500200A
:10355000054908600549C1F89401052003F072FD92
:1035600001200349086010BD9C0121420000224255
:10357000940122422DE9F04704460E46174698462C
:10358000DDF8209000BF2448007808B902F014FB51
:1035900000BF21484069A04239D9EFF311810846A4
:1035A000202181F3118800BF00BF0CB304EB44025B
:1035B0001949603141F8326004EB440201EBC20169
:1035C0004F6004EB44021449603101EBC201C1F8C1
:1035D0000880002204EB44030F49603101EBC30172
:1035E0000A6104EB44030C49603101EBC301CA607A
:1035F00004EB44020849603101EBC201C1F81490A8
:10360000C1B281F3118800BF00BF002501E04FF077
:10361000FF352846BDE8F08734B000202DE9F0479B
:1036200004460E4617469846DDF8209000BF244811
:10363000007808B902F0C0FA00BF21480069A04232
:1036400039D9EFF311810846202181F3118800BF99
:1036500000BF0CB304EB44021949183141F8326041
:1036600004EB440201EBC2014F6004EB4402144935
:10367000183101EBC201C1F80880002204EB4403B9
:103680000F49183101EBC3010A6104EB44030C49F3
:10369000183101EBC301CA6004EB44020849183138
:1036A00001EBC201C1F81490C1B281F3118800BFCF
:1036B00000BF002501E04FF0FF352846BDE8F08748
:1036C00034B000202DE9F74F8346174600BF22484B
:1036D000007808B902F070FA00BF0BEB4B011E48EE
:1036E000603000EBC106DDF804903569D6F80CA017
:1036F0004FF00008554515D9B068441BBC4201D2B3
:10370000204600E038460446706841192246484683
:10371000FDF73AF8A044A1443F1B2544B068A842F5
:1037200000D10025AAEB0504BC4201D2204600E0EE
:10373000384604464CB17068411922464846FDF7A8
:1037400023F8A044A1443F1B2544B8F1000F00D04A
:1037500035614046BDE8FE8F34B000202DE9F84FBA
:1037600082468B461646CDF800B00AEB4A01264841
:1037700000EBC104D4F81090E568A94533D8A068DF
:10378000401E471BB7420AD3616848193246009968
:10379000FCF7FAFFA819E0600120BDE8F88F4F445C
:1037A000B7422FD3A068A0EB0508B04508D96168DF
:1037B000481932460099FCF7E7FFA819E06010E0CD
:1037C0006168481942460099FCF7DEFFA6EB080243
:1037D000009B03EB08016068FCF7D6FFA6EB08002E
:1037E000E0600120D9E7A9EB0500471EB74209D3E5
:1037F0006168481932460099FCF7C6FFA819E060D5
:103800000120CAE70020C8E74CB0002010B5064BE5
:10381000064A07480168006800F07EF84FF0005043
:1038200000F0B8FB10BD0000155F000870F0000844
:103830005C00002010B502460B461046194605E014
:10384000CCB244F0800400F8014BC9097F29F7D8B5
:1038500000F8011B0246104610BD000070B5EFF3E2
:1038600011800646202080F3118800BF00BF284841
:1038700002F048FA05462C462046264A516805E0E3
:10388000CAB242F0800200F8012BC9097F29F7D89B
:1038900000F8011B044620461E4A916805E0CAB2A2
:1038A00042F0800200F8012BC9097F29F7D800F8FF
:1038B000011B04462046174A116905E0CAB242F0CE
:1038C000800200F8012BC9097F29F7D800F8011BF5
:1038D00004462046022105E0CAB242F0800200F808
:1038E000012BC9097F29F7D800F8011B04461822CB
:1038F0002146284602F00AFAF0B280F3118800BF90
:1039000000BF0448406A10B10249486A804770BD50
:1039100014B90020ECB80020F8B504460D4617464F
:103920001E4600204FF480630E4A0FA10090012034
:10393000FFF774FE002008230D4A0BA10090012020
:10394000FFF718FE4FF080500A4908610A484068A6
:10395000C8600846076244608560466200200870BF
:10396000F8BD0000ECB40020537973566965770008
:1039700054010020ECB80020001000E070B5EFF317
:1039800011800446202080F3118800BF00BF074843
:1039900002F0B8F9054611222946284602F0B6F988
:1039A000E0B280F3118800BF00BF70BD14B90020E1
:1039B0002DE9F0410446EFF311800746202080F303
:1039C000118800BF00BF114802F09CF905462E4641
:1039D0000F480069201A84083046214605E0CAB223
:1039E00042F0800200F8012BC9097F29F7D800F8BE
:1039F000011B064608223146284602F087F9F8B234
:103A000080F3118800BF00BFBDE8F08114B9002029
:103A1000ECB800202DE9F0410446EFF31180074691
:103A2000202080F3118800BF00BF114802F06AF91E
:103A300005462E460F480069201A84083046214664
:103A400005E0CAB242F0800200F8012BC9097F29C3
:103A5000F7D800F8011B064604223146284602F03A
:103A600055F9F8B280F3118800BF00BFBDE8F081BE
:103A700014B90020ECB800202DE9F0410446EFF322
:103A800011800746202080F3118800BF00BF114835
:103A900002F038F905462E460F480069201A8408BE
:103AA0003046214605E0CAB242F0800200F8012B00
:103AB000C9097F29F7D800F8011B064606223146BE
:103AC000284602F023F9F8B280F3118800BF00BF46
:103AD000BDE8F08114B90020ECB8002070B50C48A6
:103AE000006A78B10A48006A006858B10849096A52
:103AF0000868804704460D462A4621460D2000F0FE
:103B000039F804E0034841680C2000F005F870BD66
:103B1000ECB80020001000E02DE9F04105460E460B
:103B2000EFF311808046202080F3118800BF00BF92
:103B30000F4802F0E7F8044627463846314605E0CC
:103B4000CAB242F0800200F8012BC9097F29F7D8D8
:103B500000F8011B07462A463946204602F0D6F8EF
:103B600008F0FF0080F3118800BF00BFBDE8F081BE
:103B700014B900202DE9F04706460F469046EFF3B2
:103B800011808146202080F3118800BF00BF1748B4
:103B900002F0B8F805462C462046394605E0CAB280
:103BA00042F0800200F8012BC9097F29F7D800F8FC
:103BB000011B04462046414605E0CAB242F080029D
:103BC00000F8012BC9097F29F7D800F8011B04462A
:103BD00032462146284602F099F809F0FF0080F3AA
:103BE000118800BF00BFBDE8F087000014B90020B5
:103BF0002DE9F04706460F4690469946EFF31180AF
:103C00008246202080F3118800BF00BF1D4802F0CB
:103C100079F805462C462046394605E0CAB242F0FE
:103C2000800200F8012BC9097F29F7D800F8011B91
:103C300004462046414605E0CAB242F0800200F840
:103C4000012BC9097F29F7D800F8011B044620463B
:103C5000494605E0CAB242F0800200F8012BC909CA
:103C60007F29F7D800F8011B044632462146284632
:103C700002F04CF80AF0FF0080F3118800BF00BF8B
:103C8000BDE8F08714B9002070B50446EFF3118049
:103C90000546202080F3118800BF00BF074802F0CE
:103CA00031F8064622463146304602F02FF8E8B297
:103CB00080F3118800BF00BF70BD000014B9002060
:103CC0002DE9F047064627480068002847D02548D8
:103CD0000468002703E0246904B902E07F1CB742AE
:103CE000F9D300BF002C3AD0EFF311808146202099
:103CF00080F3118800BF00BF1B4802F003F8804624
:103D000045462846314605E0CAB242F0800200F836
:103D1000012BC9097F29F7D800F8011B0546284661
:103D2000A16805E0CAB242F0800200F8012BC9097F
:103D30007F29F7D800F8011B054680222846216814
:103D400001F072FF054616222946404601F0DEFFCB
:103D500009F0FF0080F3118800BF00BF00BFBDE87D
:103D6000F08700005C01002014B9002010B507485E
:103D7000006848B10548046800BFE06808B1E06821
:103D800080472469002CF8D110BD00005C010020A0
:103D900070B5EFF311800646202080F3118800BF34
:103DA00000BF0F4801F0AEFF0446254628460D4AE5
:103DB000117805E0CAB242F0800200F8012BC9096F
:103DC0007F29F7D800F8011B05461B22294620460B
:103DD00001F09CFFF0B280F3118800BF00BF70BDFE
:103DE00014B90020600100202DE9F04104460D4681
:103DF0001646EFF311800746202080F3118800BF9C
:103E000000BF32462946201D01F080FFF8B280F342
:103E1000118800BF00BF0020BDE8F0812DE9F0410E
:103E20000446EFF311800546202080F3118800BF7F
:103E300000BF0B4801F066FF074680222146384646
:103E400001F0F2FE06460E223146384601F05EFFD2
:103E5000E8B280F3118800BF00BFBDE8F081000028
:103E600014B900202DE9F0410546EFF31180074613
:103E7000202080F3118800BF00BF3C4801F042FFC2
:103E80000646344620463A4B2A681B69D21A9108E6
:103E900005E0CAB242F0800200F8012BC9097F296F
:103EA000F7D800F8011B04462046A96805E0CAB20D
:103EB00042F0800200F8012BC9097F29F7D800F8E9
:103EC000011B044620222046696801F0ADFE04462D
:103ED00009222146304601F019FF34462046244B82
:103EE0002A681B69D21A910805E0CAB242F0800222
:103EF00000F8012BC9097F29F7D800F8011B0446F7
:103F00002046E96805E0CAB242F0800200F8012BC1
:103F1000C9097F29F7D800F8011B04462046296902
:103F200005E0CAB242F0800200F8012BC9097F29DE
:103F3000F7D800F8011B04462046002105E0CAB26C
:103F400042F0800200F8012BC9097F29F7D800F858
:103F5000011B044615222146304601F0D7FEF8B277
:103F600080F3118800BF00BFBDE8F08114B90020C4
:103F7000ECB8002010B50648006A38B10448006A61
:103F8000406818B10249096A4868804710BD0000BE
:103F9000ECB800200149086170470000ECB800202F
:103FA000014602480069081A80087047ECB80020F2
:103FB00070B53D480078002875D101203A49087055
:103FC000EFF311800446202080F3118800BF00BF6A
:103FD0000A2236490120FFF7C1FBE0B280F31188C5
:103FE00000BF00BF0A20FFF74FFEEFF31180064627
:103FF000202080F3118800BF00BF2D4801F082FE11
:1040000005462C462046284A516805E0CAB242F0CF
:10401000800200F8012BC9097F29F7D800F8011B9D
:1040200004462046204A916805E0CAB242F0800268
:1040300000F8012BC9097F29F7D800F8011B0446B5
:104040002046194A116905E0CAB242F0800200F820
:10405000012BC9097F29F7D800F8011B0446204627
:10406000022105E0CAB242F0800200F8012BC90922
:104070007F29F7D800F8011B04461822214628465C
:1040800001F044FEF0B280F3118800BF00BF064883
:10409000406A10B10449486A8047FFF71FFDFFF7E7
:1040A00069FFFFF775FE70BDECB8002078F00008DE
:1040B00014B9002070B5EFF311800546202080F37D
:1040C000118800BF00BF0A4801F01CFE04460948E1
:1040D000007838B10B222146204601F017FE00205F
:1040E00004490870E8B280F3118800BF00BF70BDBA
:1040F00014B90020ECB800202DE9F0410546EFF39B
:1041000011800646202080F3118800BF00BF1948A7
:1041100001F0F8FD074680222946384601F084FD6B
:1041200004462046012105E0CAB242F0800200F8B0
:10413000012BC9097F29F7D800F8011B0446204646
:10414000002105E0CAB242F0800200F8012BC90943
:104150007F29F7D800F8011B04461A222146384669
:1041600001F0D4FDF0B280F3118800BF00BFBDE8BC
:10417000F081000014B900202DE9F8430746884675
:1041800016461C460025A946E9480090009008E024
:104190000098411E009120B90720FEF717FEBDE8E8
:1041A000F8834FF40031E348FEF756FD0028EFD1C5
:1041B0000121E048FEF738FD4FF46170009007E000
:1041C0000098411E009118B90820FEF7FFFDE6E7B0
:1041D000D949D848FEF740FD0128F1D17806010EF3
:1041E0000022D448FEF7DBFD4FF46170009007E039
:1041F0000098411E009118B90920FEF7E7FDCEE7AF
:10420000CD49491CCB48FEF727FD0128F0D11421E8
:10421000C848FEF7B5FD1821C648FEF7B1FD4FF4BA
:104220006170009007E00098411E009118B90A20C3
:10423000FEF7CCFDB3E7C0497F31BE48FEF70CFD69
:104240000128F0D14146BB48FEF7B2FD4FF4617042
:10425000009007E00098411E009118B90B20FEF76E
:10426000B5FD9CE7B4497F31B248FEF7F5FC012863
:10427000F0D10121AF48FEF7D7FC4FF461700090F8
:1042800007E00098411E009118B90C20FEF79EFD32
:1042900085E7A949A748FEF7DFFC0128F1D1780698
:1042A000010E0122A348FEF77AFD4FF461700090E1
:1042B00007E00098411E009118B90D20FEF786FD19
:1042C0006DE79D49491C9B48FEF7C6FC0128F0D1CB
:1042D000012E27D100219748FEF76CFC1421954848
:1042E000FEF74EFD18219348FEF74AFD0121914843
:1042F000FEF7A6FC4FF46170009007E00098411EA5
:10430000009118B90E20FEF761FD48E78A493F3158
:104310008848FEF7A1FC0128F0D18648FEF73BFD56
:104320002070E1E0022E31D100218248FEF742FCEC
:104330008048008840F400607E49088014217D4850
:10434000FEF71EFD18217B48FEF71AFD4FF4617041
:10435000009007E00098411E009118B90F20FEF769
:1043600035FD1CE77449C91C7248FEF775FC01282D
:10437000F0D101216F48FEF763FC6E48FEF70BFD9C
:1043800020706C48FEF707FD6070ADE0032E42D14F
:1043900014216848FEF7F4FC18216648FEF7F0FC8B
:1043A0004FF46170009007E00098411E009118B929
:1043B0001020FEF70BFDF2E65F49C91C5D48FEF7D1
:1043C0004BFC0128F0D100215A48FEF7F3FB594875
:1043D000FEF7E1FC207001215648FEF731FC5548FC
:1043E000FEF7D9FC60704FF46170009007E0009810
:1043F000411E009118B91120FEF7E8FCCFE64E49A6
:104400003F314C48FEF728FC0128F0D14948FEF71F
:10441000C2FCA07068E014214648FEF7B1FC1821E8
:104420004448FEF7ADFC00255CE0F01EA84241D1F7
:104430004FF46170009007E00098411E009118B998
:104440001020FEF7C3FCAAE63B49C91C3948FEF719
:1044500003FC0128F0D100213648FEF7ABFB3548BC
:10446000FEF799FC29466D1C605401213148FEF786
:10447000E7FB3048FEF78FFC014628466D1C2154AF
:104480004FF46170009007E00098411E009118B948
:104490001120FEF79BFC82E627493F312548FEF7B5
:1044A000DBFB0128F0D12348FEF775FC29466D1C83
:1044B00060541AE04FF46170009007E00098411ECC
:1044C000009118B91220FEF781FC68E61A493F31C5
:1044D0001848FEF7C1FB0128F0D11648FEF75BFC37
:1044E00060556D1CB542A0D300BF1349C91C1148CB
:1044F000FEF76CFB0E48009007E00098411E00910B
:1045000018B91320FEF762FC49E64FF40031094860
:10451000FEF7A2FB0028F0D101210648FEF74AFB76
:104520000448008820F4006002490880484636E6C6
:10453000B01E040000580040010000102DE9F843AF
:104540000546884616461F464FF0000900244B4892
:104550000090009008E00098411E009120B90120D1
:10456000FEF734FCBDE8F8834FF400314448FEF711
:1045700073FB0028EFD101214148FEF755FB4FF4B2
:104580006170009007E00098411E009118B9022068
:10459000FEF71CFCE6E73B493948FEF75DFB0128C6
:1045A000F1D16806010E00223548FEF7F8FB4FF402
:1045B0006170009007E00098411E009118B9032037
:1045C000FEF704FCCEE72F49491C2D48FEF744FBBB
:1045D0000128F0D114212A48FEF7D2FB18212848DF
:1045E000FEF7CEFB4FF46170009007E00098411E8B
:1045F000009118B90420FEF7E9FBB3E721497F31A8
:104600001F48FEF729FB0128F0D141461C48FEF760
:10461000CFFB002417E04FF46170009007E0009892
:10462000411E009118B90520FEF7D0FB9AE7154905
:104630007F311348FEF710FB0128F0D1395D104897
:10464000FEF7B6FB641CB442E5D34FF461700090F2
:1046500007E00098411E009118B90620FEF7B6FB4E
:1046600080E70849C91C0648FEF7F6FA0128F0D190
:1046700001210348FEF7E4FA484673E7B01E040040
:1046800000580040010000102DE9F84305460C4693
:1046900016461F46DDF82080052221A12046FCF7A2
:1046A00023F808B9BDE8F8831F480068082803D339
:1046B0001E48FFF721FDF5E71B48006800EB80006E
:1046C0001B4941F820501848006800EB800001EBBE
:1046D000800044601448006800EB800001EB80001B
:1046E00086601148006800EB800001EB8000C76025
:1046F0000D48006800EB800001EB8000C0F81080DE
:1047000009480068401C084908603B46324621467B
:104710002846CDF8008000F0BBF800BFC2E70000DB
:1047200049444C450000000050010020A8F1000859
:1047300094AF002070B505464048006800B970BDD0
:10474000002408E004EB84003D4951F82000A84211
:1047500000D104E0641C394800688442F2D300BFF1
:1047600036480068401EA0420DD104EB8401344A53
:1047700002EB81001421FCF786F830480068401EE7
:104780002E49086057E02D480068844253D22B48D8
:104790000068401E00EB8000294951F8200004EB1E
:1047A0008401274A42F8210024480068401E00EB9B
:1047B0008000114601EB8000406804EB840102EBAD
:1047C000810148601D480068401E00EB80001146D2
:1047D00001EB8000806804EB840102EB81018860BA
:1047E00016480068401E00EB8000114601EB800077
:1047F000C06804EB840102EB8101C8600F480068C7
:10480000401E00EB8000114601EB8000006904EBC4
:10481000840102EB8101086108490968491E01EB26
:10482000810102EB81001421FCF72DF80348006898
:10483000401E0249086000BF81E7000050010020CF
:1048400094AF00202DE9F04389B004468846154610
:104850001E46DDF8409002AF41463846FEF7EAFFBB
:10486000074629463846FEF7E5FF074631463846F3
:10487000FEF7E0FF074649463846FEF7DBFF0746EE
:104880002246394601A8FFF7AFFA09B0BDE8F08328
:104890002DE9F04186B004460D4616461F46DDF868
:1048A0003080142101A8FBF7EEFF019402950396D6
:1048B0000497CDF8148001A8FFF7D4FA06B0BDE83C
:1048C000F0812DE9F04706460F46904699464FF095
:1048D000000A0024FEF766F985B200BF00244B46AB
:1048E000424639463046FFF747FC04466CB165B195
:1048F0005046411C01F0FF0A042802DD2046BDE8B5
:10490000F087284602F07EFBE8E72046F7E72DE92E
:10491000F04706460F46904699464FF0000A00249D
:10492000FEF740F985B200BF00244B4642463946A7
:104930003046FFF703FE04466CB165B15046411C9A
:1049400001F0FF0A042802DD2046BDE8F087284672
:1049500002F058FBE8E72046F7E710B500F002F850
:1049600010BD00000CB50020019000903348006895
:1049700040F480303149086000BF3048006800F4DE
:10498000003000900198401C0190009818B90198DF
:10499000B0F5A06FF1D12948006800F4003010B1E3
:1049A0000120009001E0002000900098012843D1F0
:1049B0002348006840F0100021490860084600685C
:1049C00020F0030008600846006840F0020008601C
:1049D0001A484068194948600846406848600846D7
:1049E000406840F4806048600846406820F47C10CD
:1049F00048600846406840F4E8104860084600688F
:104A000040F08070086000BF0C48006800F0007043
:104A10000028F9D00948406820F0030007494860A1
:104A20000846406840F00200486000BF0348406804
:104A300000F00C000828F9D10CBD00000010024065
:104A40000020024001490880704700007E000020DD
:104A500000B589B001210420FEF772FC0121082075
:104A6000FEF78EFC4020ADF8040004208DF807000E
:104A700003208DF8060001A92748FDF793FF4FF6A4
:104A8000FF70ADF81000254800682549B0FBF1F033
:104A9000401E80B2ADF80C000020ADF81200ADF859
:104AA0000E0003A91F4800F05DFE0020ADF81800BD
:104AB000ADF81A000120ADF81C000020ADF81E0072
:104AC000ADF8200006A9174800F0C7FD5021154891
:104AD00000F001FE0421134800F00FFE8021114870
:104AE00000F002FE01210F4800F03CFD1E208DF871
:104AF000080008208DF8090000208DF80A00012028
:104B00008DF80B0002A8FEF749FB0122042105489D
:104B100000F09AFD09B000BD000C01405C000020CF
:104B200020A107000008004000B589B00121022043
:104B3000FEF706FC01210520FEF722FC4020ADF81F
:104B4000040004208DF8070003208DF8060001A959
:104B50002748FDF727FF4FF6FF70ADF810002548F6
:104B600000682549B0FBF1F0401E80B2ADF80C00A2
:104B70000020ADF81200ADF80E0003A91F4800F0A8
:104B8000F1FD0020ADF81800ADF81A000120ADF8D5
:104B90001C000020ADF81E00ADF8200006A9174843
:104BA00000F05BFD5021154800F095FD04211348ED
:104BB00000F0A3FD8021114800F096FD01210F486F
:104BC00000F0D0FC1D208DF8080008208DF80900A9
:104BD00000208DF80A0001208DF80B0002A8FEF7D6
:104BE000DDFA01220421054800F02EFD09B000BDC8
:104BF000000801405C00002020A1070000040040E4
:104C000000B589B001210820FEF79AFB012104209C
:104C1000FEF7B6FB0120ADF8040004208DF8070074
:104C200003208DF8060001A92748FDF7BBFE4FF6CB
:104C3000FF70ADF81000254800682549B0FBF1F081
:104C4000401E80B2ADF80C000020ADF81200ADF8A7
:104C50000E0003A91F4800F085FD0020ADF81800E4
:104C6000ADF81A000120ADF81C000020ADF81E00C0
:104C7000ADF8200006A9174800F0EFFC50211548B8
:104C800000F029FD0421134800F037FD8021114870
:104C900000F02AFD01210F4800F064FC32208DF85D
:104CA000080008208DF8090000208DF80A00012076
:104CB0008DF80B0002A8FEF771FA012204210548C5
:104CC00000F0C2FC09B000BD000801405C000020FB
:104CD00020A10700000C004000B589B00121084662
:104CE000FEF72EFB01210420FEF74AFB0420ADF85D
:104CF00004008DF8070003208DF8060001A925485F
:104D0000FDF750FE4FF6FF70ADF810002248006826
:104D10002249B0FBF1F0401E80B2ADF80C0000203B
:104D2000ADF81200ADF80E0003A94FF0804000F07E
:104D300019FD0820ADF818000020ADF81A00012078
:104D4000ADF81C000020ADF81E00ADF8200006A94B
:104D50004FF0804000F022FC1C208DF80800082055
:104D60008DF8090000208DF80A0001208DF80B0055
:104D700002A8FEF713FA01220821C80600F064FC1D
:104D80004FF08040008840F001004FF080410880E3
:104D900009B000BD000801405C00002020A1070010
:104DA00000B589B001214803FEF7EAFA012110207D
:104DB000FEF7E6FA4020ADF8040004208DF8070065
:104DC00001A92848FDF7EEFD4FF6FF70ADF8100081
:104DD000254800682549B0FBF1F0401E80B2ADF8CF
:104DE0000C000020ADF81200ADF80E0003A9204819
:104DF00000F0B8FC0020ADF81800ADF81A00012052
:104E0000ADF81C000020ADF81E00ADF8200006A98A
:104E1000174800F022FC5021154800F05CFC0421EA
:104E2000134800F06AFC8021114800F05DFC01216C
:104E30000F4800F097FB2E208DF8080008208DF811
:104E4000090000208DF80A0001208DF80B0002A84F
:104E5000FEF7A4F901220421054800F0F5FB09B092
:104E600000BD0000001001405C00002020A10700F0
:104E70000034014000B589B00121C802FEF780FA74
:104E800001210420FEF77CFA4FF48070ADF8040095
:104E900004208DF8070001A92748FDF783FD4FF690
:104EA000FF70ADF81000254800682549B0FBF1F00F
:104EB000401E80B2ADF80C000020ADF81200ADF835
:104EC0000E0003A91F4800F04DFC0020ADF81800AB
:104ED000ADF81A000120ADF81C000020ADF81E004E
:104EE000ADF8200006A9184800F0B7FB502116487D
:104EF00000F0F1FB0421144800F0FFFB8021124870
:104F000000F0F2FB0121104800F02CFB1B208DF873
:104F1000080008208DF8090000208DF80A00012003
:104F20008DF80B0002A8FEF739F90122042106488A
:104F300000F08AFB09B000BD001001405C000020B9
:104F400020A1070000340140002C0140042808D1B2
:104F50004FF0E021096941F004014FF0E0221161B6
:104F600007E04FF0E021096921F004014FF0E02251
:104F70001161704710B508F0AFF8012806D007F0AE
:104F8000CBFC03480068401C0149086010BD0000CC
:104F90004400002010B51348006840F0010011499A
:104FA000086008464068104908400E4948600846B5
:104FB00000680E4908400B4908600846006820F464
:104FC000802008600846406820F4FE0048604FF4E6
:104FD0001F008860FFF7C1FC4FF0006004490860C3
:104FE00010BD0000001002400000FFF8FFFFF6FEB9
:104FF00008ED00E0F0B50C46154600220021068CB5
:105000004FF6FE773E400684028B018C4FF60C76FD
:1050100032407E1C06EA03162E433243104EB04245
:105020000ED0104EB0420BD0B0F1804F08D00E4ED3
:10503000B04205D00D4EB04202D00D4EB04206D166
:105040004FF6FD76314044F00106314305E04FF65E
:10505000F576314044F00106314302830184F0BD0E
:10506000002C0140003401400004004000080040D2
:10507000000C0040F0B50C46154600220021002629
:10508000078C4FF6EF7C07EA0C070784028B018C34
:105090004FF6FF7707EA041640F6FF473A404FF60F
:1050A000FF7707EA03373A434FF6FF7707EA05270A
:1050B0003A43114FB8420ED0104FB8420BD0B0F166
:1050C000804F08D00E4FB84205D00E4FB84202D0E4
:1050D0000D4FB84206D14FF6DF77394046F0100742
:1050E000394305E04FF65F77394044F01007394304
:1050F00002830184F0BD0000002C01400034014017
:105100000004004000080040000C0040F0B50C46D0
:105110001546002200210026078C4FF6FF6C07EA97
:105120000C070784828B018C4FF6FF7707EA042671
:105130004FF60C773A404FF6FF7707EA03172F43F5
:105140003A43114FB8420ED0104FB8420BD0B0F1D5
:10515000804F08D00E4FB84205D00E4FB84202D053
:105160000D4FB84206D14FF6FF57394046F48077CD
:10517000394305E04FF2FF57394044F48077394313
:1051800082830184F0BD0000002C01400034014006
:105190000004004000080040000C0040F0B50C4640
:1051A0001546002200210026078C4EF6FF7C07EAF8
:1051B0000C070784828B018C4FF6FF7707EA0436D1
:1051C00040F6FF473A404FF6FF7707EA05273A4394
:1051D0004FF6FF7707EA03373A43114FB8420ED034
:1051E000104FB8420BD0B0F1804F08D00E4FB842EC
:1051F00005D00E4FB84202D00D4FB84206D14DF641
:10520000FF77394046F48057394305E047F6FF57AA
:10521000394044F48057394382830184F0BD000053
:10522000002C014000340140000400400008004010
:10523000000C004038B5002000900421174800F011
:10524000A3F9012829D1154800F098F91449888755
:105250000846808F4FF4AC7148434FF47A7190FB4D
:10526000F1F10F4841646A4620210E48006807F0BA
:1052700045FA04464CB1009838B14FF080500A49C5
:105280000860BFF34F8FBFF36F8F0421034800F016
:1052900066F90421014800F05FF938BD002C014097
:1052A000880100203400002004ED00E038B5002023
:1052B00000900821C80600F067F9012861D1082193
:1052C000800700F049F92F4890F8280090B94FF076
:1052D000804000F056F92B49C8844FF08040008C84
:1052E00040F400704FF0804108840121254880F887
:1052F000281046E04FF0804000F043F92149C98C66
:10530000884209DD4FF0804000F03BF91D49C98C0F
:10531000401A1C4988840BE04FF0804000F031F9BE
:105320004FF6FF7101441748C08C081A154988844C
:105330001448808C4FF4AC7148434FF47A7190FB61
:10534000F1F11048C162002180F82810C1846A463A
:1053500008210D48006807F0D1F904464CB10098C7
:1053600038B14FF0805009490860BFF34F8FBFF349
:105370006F8F4FF08040008C20F400704FF0804120
:10538000088438BD880100203400002004ED00E0CE
:1053900038B5002000900421154800F0F5F80128E8
:1053A00025D1134800F0EAF812498881084680891F
:1053B0004FF4AC7148434FF47A7190FBF1F10D4812
:1053C00041616A4602210C48006807F097F90446DB
:1053D0004CB1009838B14FF0805008490860BFF3D5
:1053E0004F8FBFF36F8F0421014800F0B5F838BD2F
:1053F00000040040880100203400002004ED00E09B
:1054000038B5002000900421154800F0BDF80128AF
:1054100025D1134800F0B2F81249088008460088E8
:105420004FF4AC7148434FF47A7190FBF1F00D49A1
:1054300088606A4601210C48006807F05FF904465D
:105440004CB1009838B14FF0805008490860BFF364
:105450004F8FBFF36F8F0421014800F07DF838BDF6
:1054600000080040880100203400002004ED00E026
:1054700038B5002000900421154800F085F8012877
:1054800025D1134800F07AF8124908830846008BAA
:105490004FF4AC7148434FF47A7190FBF1F10D4831
:1054A00001626A4604210C48006807F027F90446A7
:1054B0004CB1009838B14FF0805008490860BFF3F4
:1054C0004F8FBFF36F8F0421014800F045F838BDBE
:1054D000000C0040880100203400002004ED00E0B2
:1054E00038B5002000900421174800F04DF801283D
:1054F00029D1154800F042F8144908860846008E64
:105500004FF4AC7148434FF47A7190FBF1F10F48BE
:1055100081636A4610210E48006807F0EFF80446E0
:105520004CB1009838B14FF080500A490860BFF381
:105530004F8FBFF36F8F0421034800F010F8042150
:10554000014800F009F838BD00340140880100200E
:105550003400002004ED00E0CA4302827047CA43D1
:105560000282704721B1028842F00102028004E009
:1055700002884FF6FE731A40028070470146088F7A
:1055800070470146888F704702460020138A0B40FF
:105590000BB1012000E000207047000070B5054607
:1055A0000C46244885420ED0234885420BD0B5F1E5
:1055B000804F08D02148854205D02148854202D03D
:1055C0002048854200D100E000BF208850B92389DF
:1055D000A28861882846FFF70DFDE188284600F083
:1055E00095F825E0208804280AD12389A2886188BB
:1055F0002846FFF73FFDE188284600F090F817E0C5
:10560000208808280AD12389A28861882846FFF7C4
:105610007DFDE188284600F08FF809E02389A28803
:1056200061882846FFF7BAFDE188284600F08DF82A
:1056300070BD0000002C0140003401400004004017
:1056400000080040000C00401AB183890B4383819D
:1056500002E083898B43838170472DE9F041054641
:105660000C4600260127608808B9022600E00026C3
:10567000A088012801D1022700E001272088A0B9D5
:105680002389A28861882846FFF7B4FCE188284670
:1056900000F03CF823893A4631462846FFF7EAFCF9
:1056A000E188284600F03BF813E02389A28861884E
:1056B0002846FFF7DFFCE188284600F030F8238910
:1056C0003A4631462846FFF795FCE188284600F027
:1056D0001DF8BDE8F0810A46002101894FF68F735D
:1056E000194011430181704702894FF67F731A40B8
:1056F000028102890A430281704702894FF6F873DA
:105700001A40028102890A4302817047028B4FF6D8
:10571000F3731A400283028B0A4302837047028BA1
:105720004FF2FF331A400283028B4FF6FF7303EAF6
:1057300001231A4302837047828B4FF6F3731A409A
:105740008283828B0A4382837047828B4FF2FF33BE
:105750001A408283828B4FF6FF7303EA01231A43B8
:1057600082837047002202881D4B98420ED01D4B49
:1057700098420BD0B0F1804F08D01B4B984205D017
:105780001A4B984202D01A4B984204D14FF68F73AD
:105790001A404B881A43174B984207D0164B984231
:1057A00004D04FF6FF431A40CB881A4302808B88FF
:1057B00083850B8803850A4B98420BD0094B98428E
:1057C00008D00E4B984205D00D4B984202D00D4B9D
:1057D000984201D10B7A038601238382704700002F
:1057E000002C01400034014000040040000800404B
:1057F000000C004000100040001400400040014038
:10580000004401400048014010B540F225511D48B8
:1058100000F04AF810B31B4800F002F9C4B21A486D
:10582000008800F40040C8B91748008800F48040A0
:1058300060B10A2C03D000201349088020E01248F0
:10584000008840F400401049088019E00D2C06D172
:105850000D48008840F480400B49088010E00A4859
:105860000088C0F30D0009490C5407480088401C0B
:105870000549088008460088C72801DD0020088007
:1058800010BD000000380140C4000020800B002043
:1058900021B1828942F40052828104E082894DF66E
:1058A000FF731A408281704770B5024600240023BE
:1058B0000025002040F66A16B14200D100BFC1F3B6
:1058C000421501F01F03012606FA03F3012D02D150
:1058D0009689334006E0022D02D1168A334001E05A
:1058E000968A33400C12012606FA04F416883440D6
:1058F00013B10CB1012000E0002070BDF0B50346EB
:10590000002400260025002040F66A17B94200D185
:1059100000BF1846C1F3421401F01F06012707FA21
:1059200006F5012C01D10C3004E0022C01D110301D
:1059300000E014301AB107682F43076002E00768DF
:10594000AF430760F0BD00002DE9F04786B0054683
:105950000E460024A24600BFA1460027B08900B130
:1059600000BF2F462C8A4CF6FF700440F088044399
:105970002C82AC894EF6F3100440B088318908437C
:10598000718908430443AC81AC8A4FF6FF40044060
:10599000B0890443AC8201A8FDF712FD1F4887427D
:1059A00002D1DDF810A001E0DDF80CA0A88900F418
:1059B000004040B10AEBCA0000EB0A103168490010
:1059C000B0FBF1F807E00AEBCA0000EB0A103168FF
:1059D0008900B0FBF1F86420B8FBF0F00401200965
:1059E000642101FB1089A88900F4004040B13220F5
:1059F00000EBC900B0FBF1F000F00700044308E041
:105A0000322000EB09106421B0FBF1F000F00F0030
:105A100004432C8106B0BDE8F08700000038014047
:105A200001468888C0F30800704700001FB50D4A82
:105A300000210D48FCF794FC0A4840680090094892
:105A4000807A8DF80C000748827A00F10B0101A8DA
:105A5000FAF79AFE4FF47A7200236946034800F081
:105A6000A9FE1FBD48080020006400400404002077
:105A700000B585B02E48007A2E4908702C48008960
:105A8000000A48702A48007D88702948808A000AE8
:105A9000C870274890F8200008712548008C000A3B
:105AA0004871234890F82C0088712148808D000AA5
:105AB000C8711F4890F8380008721D48008F000A0E
:105AC00048721B4890F8440088721948B0F84400A6
:105AD000000AC872164890F87E0008731448B0F89F
